{
  "contractName": "Rent",
  "abi": [
    {
      "constant": true,
      "inputs": [
        {
          "name": "",
          "type": "uint256"
        }
      ],
      "name": "users",
      "outputs": [
        {
          "name": "",
          "type": "address"
        }
      ],
      "payable": false,
      "stateMutability": "view",
      "type": "function"
    },
    {
      "constant": false,
      "inputs": [
        {
          "name": "containerId",
          "type": "uint256"
        }
      ],
      "name": "rent",
      "outputs": [
        {
          "name": "",
          "type": "uint256"
        }
      ],
      "payable": false,
      "stateMutability": "nonpayable",
      "type": "function"
    },
    {
      "constant": true,
      "inputs": [],
      "name": "getUsers",
      "outputs": [
        {
          "name": "",
          "type": "address[16]"
        }
      ],
      "payable": false,
      "stateMutability": "view",
      "type": "function"
    }
  ],
  "bytecode": "0x6060604052341561000f57600080fd5b6102dc8061001e6000396000f300606060405260043610610056576000357c0100000000000000000000000000000000000000000000000000000000900463ffffffff168062ce8e3e1461005b578063365b98b2146100ac5780637456be7d1461010f575b600080fd5b341561006657600080fd5b61006e610146565b6040518082601060200280838360005b8381101561009957808201518184015260208101905061007e565b5050505090500191505060405180910390f35b34156100b757600080fd5b6100cd60048080359060200190919050506101c7565b604051808273ffffffffffffffffffffffffffffffffffffffff1673ffffffffffffffffffffffffffffffffffffffff16815260200191505060405180910390f35b341561011a57600080fd5b61013060048080359060200190919050506101fc565b6040518082815260200191505060405180910390f35b61014e610271565b60006010806020026040519081016040528092919082601080156101bd576020028201915b8160009054906101000a900473ffffffffffffffffffffffffffffffffffffffff1673ffffffffffffffffffffffffffffffffffffffff1681526020019060010190808311610173575b5050505050905090565b6000816010811015156101d657fe5b016000915054906101000a900473ffffffffffffffffffffffffffffffffffffffff1681565b600080821015801561020f5750600f8211155b151561021a57600080fd5b3360008360108110151561022a57fe5b0160006101000a81548173ffffffffffffffffffffffffffffffffffffffff021916908373ffffffffffffffffffffffffffffffffffffffff160217905550819050919050565b610200604051908101604052806010905b600073ffffffffffffffffffffffffffffffffffffffff1681526020019060019003908161028257905050905600a165627a7a72305820dec732d1ac4077b2978d08ff19152f333528630e336c2553291cb92922b13e8f0029",
  "source": "pragma solidity ^0.4.17;\r\n\r\ncontract Rent {\r\n\taddress[16] public users;\r\n\r\n\tfunction rent(uint containerId) public returns (uint) {\r\n\t\trequire(containerId >= 0 && containerId <= 15);\r\n\r\n\t\tusers[containerId] = msg.sender;\r\n\r\n\t\treturn containerId;\r\n\t}\r\n\t\t\r\n\t// Retrieving the users\r\n\tfunction getUsers() public view returns (address[16]) {\r\n\t\treturn users;\r\n\t}\r\n\r\n}",
  "sourcePath": "C:\\Users\\arthu\\Desktop\\Projects\\BSc-Project\\Containers\\contracts\\Rent.sol",
  "compiler": {
    "name": "solc",
    "version": "0.4.19+commit.c4cbbb05.Emscripten.clang"
  },
  "schemaVersion": "2.0.0",
  "updatedAt": "2018-03-13T10:24:53.255Z"
}